{
  "_format": "hh3-artifact-1",
  "contractName": "Factory",
  "sourceName": "contracts/Factory.sol",
  "abi": [
    {
      "anonymous": false,
      "inputs": [
        {
          "indexed": true,
          "internalType": "address",
          "name": "token0",
          "type": "address"
        },
        {
          "indexed": true,
          "internalType": "address",
          "name": "token1",
          "type": "address"
        },
        {
          "indexed": false,
          "internalType": "address",
          "name": "pair",
          "type": "address"
        },
        {
          "indexed": false,
          "internalType": "uint256",
          "name": "",
          "type": "uint256"
        }
      ],
      "name": "PairCreated",
      "type": "event"
    },
    {
      "inputs": [
        {
          "internalType": "uint256",
          "name": "",
          "type": "uint256"
        }
      ],
      "name": "allPairs",
      "outputs": [
        {
          "internalType": "address",
          "name": "",
          "type": "address"
        }
      ],
      "stateMutability": "view",
      "type": "function"
    },
    {
      "inputs": [],
      "name": "allPairsLength",
      "outputs": [
        {
          "internalType": "uint256",
          "name": "",
          "type": "uint256"
        }
      ],
      "stateMutability": "view",
      "type": "function"
    },
    {
      "inputs": [
        {
          "internalType": "address",
          "name": "tokenA",
          "type": "address"
        },
        {
          "internalType": "address",
          "name": "tokenB",
          "type": "address"
        }
      ],
      "name": "createPair",
      "outputs": [
        {
          "internalType": "address",
          "name": "pair",
          "type": "address"
        }
      ],
      "stateMutability": "nonpayable",
      "type": "function"
    },
    {
      "inputs": [
        {
          "internalType": "address",
          "name": "",
          "type": "address"
        },
        {
          "internalType": "address",
          "name": "",
          "type": "address"
        }
      ],
      "name": "getPair",
      "outputs": [
        {
          "internalType": "address",
          "name": "",
          "type": "address"
        }
      ],
      "stateMutability": "view",
      "type": "function"
    }
  ],
  "bytecode": "0x6080604052348015600e575f5ffd5b50611efc8061001c5f395ff3fe608060405234801561000f575f5ffd5b506004361061004a575f3560e01c80631e3dd18b1461004e578063574f2ba31461007e578063c9c653961461008f578063e6a43905146100a2575b5f5ffd5b61006161005c366004610404565b6100d2565b6040516001600160a01b0390911681526020015b60405180910390f35b600154604051908152602001610075565b61006161009d366004610436565b6100fa565b6100616100b0366004610436565b5f6020818152928152604080822090935290815220546001600160a01b031681565b600181815481106100e1575f80fd5b5f918252602090912001546001600160a01b0316905081565b5f816001600160a01b0316836001600160a01b0316036101615760405162461bcd60e51b815260206004820152601c60248201527f466163746f72793a204944454e544943414c5f4144445245535345530000000060448201526064015b60405180910390fd5b5f5f836001600160a01b0316856001600160a01b031610610183578385610186565b84845b90925090506001600160a01b0382166101d95760405162461bcd60e51b8152602060048201526015602482015274466163746f72793a205a45524f5f4144445245535360581b6044820152606401610158565b6001600160a01b038281165f90815260208181526040808320858516845290915290205416156102425760405162461bcd60e51b8152602060048201526014602482015273466163746f72793a20504149525f45584953545360601b6044820152606401610158565b5f60405180602001610253906103f7565b601f1982820381018352601f9091011660408190526bffffffffffffffffffffffff19606086811b8216602084015285811b8216603484015246604884015230901b1660688201529091505f90607c01604051602081830303815290604052805190602001209050808251602084015ff560405163485cc95560e01b81526001600160a01b03868116600483015285811660248301529196509086169063485cc955906044015f604051808303815f87803b158015610310575f5ffd5b505af1158015610322573d5f5f3e3d5ffd5b505050506001600160a01b038481165f8181526020818152604080832088861680855290835281842080546001600160a01b0319908116978d1697881790915584845282852086865284528285208054821688179055600180548082018255958190527fb10e2d527612073b26eecdfd717e6a320cf44b4afac2b0732d9fcbe2b7fa0cf6909501805490911687179055925481519586529185019190915290927f0d3648bd0f6ba80134a33ba9275ac585d9d315f0ad8355cddefde31afa28d0e9910160405180910390a35050505092915050565b611a5f8061046883390190565b5f60208284031215610414575f5ffd5b5035919050565b80356001600160a01b0381168114610431575f5ffd5b919050565b5f5f60408385031215610447575f5ffd5b6104508361041b565b915061045e6020840161041b565b9050925092905056fe608060405234801561000f575f5ffd5b50604051806040016040528060088152602001672628102a37b5b2b760c11b8152506040518060400160405280600281526020016104c560f41b815250816003908161005b919061010d565b506004610068828261010d565b50506001600555506101c7565b634e487b7160e01b5f52604160045260245ffd5b600181811c9082168061009d57607f821691505b6020821081036100bb57634e487b7160e01b5f52602260045260245ffd5b50919050565b601f82111561010857805f5260205f20601f840160051c810160208510156100e65750805b601f840160051c820191505b81811015610105575f81556001016100f2565b50505b505050565b81516001600160401b0381111561012657610126610075565b61013a816101348454610089565b846100c1565b6020601f82116001811461016c575f83156101555750848201515b5f19600385901b1c1916600184901b178455610105565b5f84815260208120601f198516915b8281101561019b578785015182556020948501946001909201910161017b565b50848210156101b857868401515f19600387901b60f8161c191681555b50505050600190811b01905550565b61188b806101d45f395ff3fe608060405234801561000f575f5ffd5b506004361061011c575f3560e01c8063485cc955116100a9578063d21220a71161006e578063d21220a714610290578063dd62ed3e146102a3578063f3e6ea8a146102db578063fe08b58c146102ee578063fff6cae9146102f7575f5ffd5b8063485cc9551461022557806370a082311461023a57806395d89b41146102625780639cd441da1461026a578063a9059cbb1461027d575f5ffd5b80630dfe1681116100ef5780630dfe1681146101b95780631605b17f146101e457806318160ddd146101fb57806323b872dd14610203578063313ce56714610216575f5ffd5b806305fe138b1461012057806306fdde031461014d5780630902f1ac14610162578063095ea7b314610196575b5f5ffd5b61013361012e366004611597565b6102ff565b604080519283526020830191909152015b60405180910390f35b6101556106af565b60405161014491906115c1565b61016a61073f565b604080516001600160701b03948516815293909216602084015263ffffffff1690820152606001610144565b6101a96101a43660046115f6565b610769565b6040519015158152602001610144565b6006546101cc906001600160a01b031681565b6040516001600160a01b039091168152602001610144565b6101ed6103e881565b604051908152602001610144565b6002546101ed565b6101a961021136600461161e565b610782565b60405160128152602001610144565b610238610233366004611658565b6107a5565b005b6101ed610248366004611680565b6001600160a01b03165f9081526020819052604090205490565b61015561089b565b6101ed6102783660046116a0565b6108aa565b6101a961028b3660046115f6565b610b76565b6007546101cc906001600160a01b031681565b6101ed6102b1366004611658565b6001600160a01b039182165f90815260016020908152604080832093909416825291909152205490565b6101ed6102e93660046116c0565b610b83565b6101ed6103e581565b610238610fec565b5f5f610309611098565b600754600160a01b900460ff1661033b5760405162461bcd60e51b815260040161033290611703565b60405180910390fd5b5f84116103815760405162461bcd60e51b8152602060048201526014602482015273506169723a205a45524f5f4c495155494449545960601b6044820152606401610332565b5f61038b60025490565b90505f81116103d15760405162461bcd60e51b8152602060048201526012602482015271506169723a204e4f5f4c495155494449545960701b6044820152606401610332565b60085481906103e9906001600160701b031687611746565b6103f39190611771565b600854909350819061041590600160701b90046001600160701b031687611746565b61041f9190611771565b91505f8311801561042f57505f82115b6104875760405162461bcd60e51b815260206004820152602360248201527f506169723a20494e53554646494349454e545f4c49515549444954595f42555260448201526213915160ea1b6064820152608401610332565b61049133866110c2565b60065460405163a9059cbb60e01b81526001600160a01b038681166004830152602482018690529091169063a9059cbb906044016020604051808303815f875af11580156104e1573d5f5f3e3d5ffd5b505050506040513d601f19601f820116820180604052508101906105059190611784565b5060075460405163a9059cbb60e01b81526001600160a01b038681166004830152602482018590529091169063a9059cbb906044016020604051808303815f875af1158015610556573d5f5f3e3d5ffd5b505050506040513d601f19601f8201168201806040525081019061057a9190611784565b506006546040516370a0823160e01b8152306004820152610657916001600160a01b0316906370a08231906024015b602060405180830381865afa1580156105c4573d5f5f3e3d5ffd5b505050506040513d601f19601f820116820180604052508101906105e891906117a3565b6007546040516370a0823160e01b81523060048201526001600160a01b03909116906370a0823190602401602060405180830381865afa15801561062e573d5f5f3e3d5ffd5b505050506040513d601f19601f8201168201806040525081019061065291906117a3565b6110fa565b60408051848152602081018490526001600160a01b0386169133917fdccd412f0b1252819cb1fd330b93224ca42612892bb3f4f789976e6d81936496910160405180910390a3506106a86001600555565b9250929050565b6060600380546106be906117ba565b80601f01602080910402602001604051908101604052809291908181526020018280546106ea906117ba565b80156107355780601f1061070c57610100808354040283529160200191610735565b820191905f5260205f20905b81548152906001019060200180831161071857829003601f168201915b5050505050905090565b6008546001600160701b0380821692600160701b830490911691600160e01b900463ffffffff1690565b5f33610776818585611204565b60019150505b92915050565b5f3361078f858285611216565b61079a858585611292565b506001949350505050565b600754600160a01b900460ff16156107ff5760405162461bcd60e51b815260206004820152601960248201527f506169723a20414c52454144595f494e495449414c495a4544000000000000006044820152606401610332565b806001600160a01b0316826001600160a01b0316036108605760405162461bcd60e51b815260206004820152601960248201527f506169723a204944454e544943414c5f414444524553534553000000000000006044820152606401610332565b600680546001600160a01b039384166001600160a01b0319909116179055600780546001600160a81b0319169190921617600160a01b179055565b6060600480546106be906117ba565b5f6108b3611098565b600754600160a01b900460ff166108dc5760405162461bcd60e51b815260040161033290611703565b5f831180156108ea57505f82115b61092a5760405162461bcd60e51b815260206004820152601160248201527014185a5c8e8816915493d7d05353d55395607a1b6044820152606401610332565b6006546040516323b872dd60e01b8152336004820152306024820152604481018590526001600160a01b03909116906323b872dd906064016020604051808303815f875af115801561097e573d5f5f3e3d5ffd5b505050506040513d601f19601f820116820180604052508101906109a29190611784565b506007546040516323b872dd60e01b8152336004820152306024820152604481018490526001600160a01b03909116906323b872dd906064016020604051808303815f875af11580156109f7573d5f5f3e3d5ffd5b505050506040513d601f19601f82011682018060405250810190610a1b9190611784565b505f610a2660025490565b9050805f03610a7157610a41610a3c8486611746565b6112ef565b91505f8211610a625760405162461bcd60e51b8152600401610332906117ec565b610a6c3383611354565b610afe565b6008545f906001600160701b0316610a898387611746565b610a939190611771565b6008549091505f90600160701b90046001600160701b0316610ab58487611746565b610abf9190611771565b9050808210610ace5780610ad0565b815b93505f8411610af15760405162461bcd60e51b8152600401610332906117ec565b610afb3385611354565b50505b6006546040516370a0823160e01b8152306004820152610b30916001600160a01b0316906370a08231906024016105a9565b604080518581526020810185905233917f4c209b5fc8ad50758f13e2e1088ba56a560dff690a1c6fef26394f4c03821c4f910160405180910390a25061077c6001600555565b5f33610776818585611292565b5f610b8c611098565b600754600160a01b900460ff16610bb55760405162461bcd60e51b815260040161033290611703565b5f8411610bfb5760405162461bcd60e51b81526020600482015260146024820152732830b4b91d102d22a927afa0a6a7aaa72a2fa4a760611b6044820152606401610332565b6006546001600160a01b0386811691161480610c2457506007546001600160a01b038681169116145b610c695760405162461bcd60e51b81526020600482015260166024820152752830b4b91d1024a72b20a624a22faa27a5a2a72fa4a760511b6044820152606401610332565b6001600160a01b038216610cb25760405162461bcd60e51b815260206004820152601060248201526f506169723a20494e56414c49445f544f60801b6044820152606401610332565b6040516323b872dd60e01b8152336004820152306024820152604481018590526001600160a01b038616906323b872dd906064016020604051808303815f875af1158015610d02573d5f5f3e3d5ffd5b505050506040513d601f19601f82011682018060405250810190610d269190611784565b50610d826040518061010001604052805f6001600160701b031681526020015f6001600160701b031681526020015f81526020015f81526020015f81526020015f81526020015f81526020015f6001600160a01b031681525090565b610d8a61073f565b506001600160701b0390811660208401521681526006546001600160a01b0390811690871603610de75780516001600160701b03908116604083015260208201511660608201526007546001600160a01b031660e0820152610e16565b60208101516001600160701b03908116604083015281511660608201526006546001600160a01b031660e08201525b610e226103e586611746565b608082018190526060820151610e3791611746565b60a082015260808101516040820151610e53906103e890611746565b610e5d919061182f565b8160a00151610e6c9190611771565b60c08201819052841115610ec25760405162461bcd60e51b815260206004820181905260248201527f506169723a20494e53554646494349454e545f4f55545055545f414d4f554e546044820152606401610332565b60e081015160c082015160405163a9059cbb60e01b81526001600160a01b038681166004830152602482019290925291169063a9059cbb906044016020604051808303815f875af1158015610f19573d5f5f3e3d5ffd5b505050506040513d601f19601f82011682018060405250810190610f3d9190611784565b506006546040516370a0823160e01b8152306004820152610f70916001600160a01b0316906370a08231906024016105a9565b826001600160a01b0316866001600160a01b0316336001600160a01b03167fb39c9bc43f811e1a7ce159c5f147458fdb80266bf23c17322013316e27e086d0888560c00151604051610fcc929190918252602082015260400190565b60405180910390a460c001519050610fe46001600555565b949350505050565b600754600160a01b900460ff166110155760405162461bcd60e51b815260040161033290611703565b6006546040516370a0823160e01b8152306004820152611047916001600160a01b0316906370a08231906024016105a9565b600854604080516001600160701b038084168252600160701b90930490921660208301527f1c411e9a96e071241c2f21f7726b17ae89e3cab4c78be50e062b03a9fffbbad1910160405180910390a1565b6002600554036110bb57604051633ee5aeb560e01b815260040160405180910390fd5b6002600555565b6001600160a01b0382166110eb57604051634b637e8f60e11b81525f6004820152602401610332565b6110f6825f83611384565b5050565b6001600160701b03821180159061111857506001600160701b038111155b6111555760405162461bcd60e51b815260206004820152600e60248201526d506169723a204f564552464c4f5760901b6044820152606401610332565b600880546001600160701b03838116600160701b026001600160e01b03199092169085161717905561118c64010000000042611842565b6008805463ffffffff92909216600160e01b026001600160e01b038316811791829055604080516001600160701b03928316948316949094178452600160701b9092041660208301527f1c411e9a96e071241c2f21f7726b17ae89e3cab4c78be50e062b03a9fffbbad1910160405180910390a15050565b61121183838360016114aa565b505050565b6001600160a01b038381165f908152600160209081526040808320938616835292905220545f1981101561128c578181101561127e57604051637dc7a0d960e11b81526001600160a01b03841660048201526024810182905260448101839052606401610332565b61128c84848484035f6114aa565b50505050565b6001600160a01b0383166112bb57604051634b637e8f60e11b81525f6004820152602401610332565b6001600160a01b0382166112e45760405163ec442f0560e01b81525f6004820152602401610332565b611211838383611384565b5f815f036112fe57505f919050565b5f61130a600284611771565b61131590600161182f565b90508291505b8181101561134e579050806002816113338186611771565b61133d919061182f565b6113479190611771565b905061131b565b50919050565b6001600160a01b03821661137d5760405163ec442f0560e01b81525f6004820152602401610332565b6110f65f83835b6001600160a01b0383166113ae578060025f8282546113a3919061182f565b9091555061141e9050565b6001600160a01b0383165f90815260208190526040902054818110156114005760405163391434e360e21b81526001600160a01b03851660048201526024810182905260448101839052606401610332565b6001600160a01b0384165f9081526020819052604090209082900390555b6001600160a01b03821661143a57600280548290039055611458565b6001600160a01b0382165f9081526020819052604090208054820190555b816001600160a01b0316836001600160a01b03167fddf252ad1be2c89b69c2b068fc378daa952ba7f163c4a11628f55a4df523b3ef8360405161149d91815260200190565b60405180910390a3505050565b6001600160a01b0384166114d35760405163e602df0560e01b81525f6004820152602401610332565b6001600160a01b0383166114fc57604051634a1406b160e11b81525f6004820152602401610332565b6001600160a01b038085165f908152600160209081526040808320938716835292905220829055801561128c57826001600160a01b0316846001600160a01b03167f8c5be1e5ebec7d5bd14f71427d1e84f3dd0314c0f7b2291e5b200ac8c7c3b9258460405161156e91815260200190565b60405180910390a350505050565b80356001600160a01b0381168114611592575f5ffd5b919050565b5f5f604083850312156115a8575f5ffd5b823591506115b86020840161157c565b90509250929050565b602081525f82518060208401528060208501604085015e5f604082850101526040601f19601f83011684010191505092915050565b5f5f60408385031215611607575f5ffd5b6116108361157c565b946020939093013593505050565b5f5f5f60608486031215611630575f5ffd5b6116398461157c565b92506116476020850161157c565b929592945050506040919091013590565b5f5f60408385031215611669575f5ffd5b6116728361157c565b91506115b86020840161157c565b5f60208284031215611690575f5ffd5b6116998261157c565b9392505050565b5f5f604083850312156116b1575f5ffd5b50508035926020909101359150565b5f5f5f5f608085870312156116d3575f5ffd5b6116dc8561157c565b935060208501359250604085013591506116f86060860161157c565b905092959194509250565b60208082526015908201527414185a5c8e881393d517d253925512505312569151605a1b604082015260600190565b634e487b7160e01b5f52601160045260245ffd5b808202811582820484141761077c5761077c611732565b634e487b7160e01b5f52601260045260245ffd5b5f8261177f5761177f61175d565b500490565b5f60208284031215611794575f5ffd5b81518015158114611699575f5ffd5b5f602082840312156117b3575f5ffd5b5051919050565b600181811c908216806117ce57607f821691505b60208210810361134e57634e487b7160e01b5f52602260045260245ffd5b60208082526023908201527f506169723a20494e53554646494349454e545f4c49515549444954595f4d494e60408201526215115160ea1b606082015260800190565b8082018082111561077c5761077c611732565b5f826118505761185061175d565b50069056fea264697066735822122079d8c454c2ebe7c7ed4e911bf4193bdd8270977aaa408b3884195c7b7e202a9f64736f6c634300081c0033a2646970667358221220850dc0fe5460d9260660677138b4d5e967ec44ffc59143af75368080bfa7516a64736f6c634300081c0033",
  "linkReferences": {},
  "deployedLinkReferences": {},
  "immutableReferences": {},
  "inputSourceName": "project/contracts/Factory.sol",
  "buildInfoId": "solc-0_8_28-cbb3d873ef5361eea95878b6c89ed4c931067e36"
}